:100000000C94CB010C94DE040C94AD040C947C0491
:100010000C944B040C941A040C94E9030C94B8034C
:100020000C9487030C94FC010C94FC010C94FC01CF
:100030000C94FC010C94FC010C94FC010C94FC014C
:100040000C94FC010C94FC010C94FC010C94FC013C
:100050000C94FC010C94FC010C94FC010C94130610
:100060000C94FC010C94F2070C941A070C94FC01FC
:100070000C94FC010C94FC010C94FC010C94FC010C
:100080000C94FC010C94FC010C94FC010C94FC01FC
:100090000C94BF070C94DB060C94FC010C94FC013F
:1000A0000C94FC010C94FC010C94FC010C94FC01DC
:1000B0000C94FC010C94FC010C94FC010C94FC01CC
:1000C0000C94FC010C94FC010C94FC010C948C0726
:1000D0000C949C060C94FC010C9459070C945D063E
:1000E0000C94FC010B0289020D020F02110217028F
:1000F000890289021C028902890289021E022102E8
:10010000240227022A022C022E023002320234027A
:10011000360238023A023C024102430245024702DB
:1001200049024B024D024F0251025302550257023F
:1001300059025B025D02630269026C026F02720285
:10014000750278027B027D0282028602FC02FF02B7
:10015000F202F6023603030307030D03110315032E
:100160001B031F032303360329032D0331030C94C0
:1001700023030C9472020C9443020C9489020C9495
:10018000AE020C942A020C947D020C9492050C94FD
:100190003C020C9486020C9451020C94F6020C94CE
:1001A00003030C946C090C9431030C946C020C94B2
:1001B00036020C9429030C942E020C944D020C94DC
:1001C00050050C94D9050C94FF020C9445020C9434
:1001D0008B020C943A020C9449020C944F020C943A
:1001E00059020C945D020C941E020C941B030C9497
:1001F00078020C9411020C9434020C9424020C9496
:1002000015030C94FC020C9407030C9427050C9422
:100210006F020C9438020C940F020C9432020C946E
:1002200021020C9447020C9457020C940D020C947A
:1002300075020C941F030C9417020C9453020C9437
:1002400027020C949D050C945B020C9430020C94D4
:1002500011030C9482020C944B020C94F2020C9445
:1002600063020C941C020C940B020C9469020C9413
:100270000D030C9455020C942C020C942D030C9439
:1002800036030C94BD050C947B020C9441020000D3
:10029000090A02080B0C0D07060304010000000008
:1002A000000000000000000000000000000000004E
:1002B0000000000000000000000011100F0000000E
:1002C000000000000000000000000000000000002E
:1002D0000000000000002100240027002A002D005B
:1002E0003000330001010000040107010A01000091
:1002F0002200250028002B002E00310034000201CE
:100300000000050108010B010505050507050808A2
:100310000808020202020A0A08080404040401018F
:1003200001010101010103030303030303030407A4
:1003300007070C0C0C0C0C0C0C0C0202020206063B
:100340000606060606060B0B0B0B0B0B0B0B01022E
:1003500010202008081020401020408002010201D7
:10036000080402010102040810204080804020108F
:1003700008040201800402018040201008040201E8
:100380000804020101020408102040800102040850
:10039000102040806C0911241FBECFEFD1E2DEBFD8
:1003A000CDBF00E00CBF12E0A0E0B2E0E6E9F4E16E
:1003B00000E00BBF02C007900D92A031B107D9F742
:1003C00024E0A0E1B2E001C01D92A93DB207E1F72F
:1003D00011E0CBECD1E000E006C021970109802FAD
:1003E000FE010E94410ACA3CD10780E00807A9F734
:1003F0000E9425080C943E0A0C94000090E0FC0139
:100400003297E433F10508F084C08827EE58FF4F97
:100410008F4F0C94410A8CB10CC082B32EC08CB1AA
:1004200002C08091000183FB882780F908958091A4
:10043000000182958170089583B1FBCF8091030103
:1004400062C08091030163C0809100015CC0809113
:1004500000015DC089B1E7CF89B150C089B153C0F7
:1004600089B155C080B153C080B14DC080B146C084
:1004700080B1D9CF80B1DDCF80B185FB882780F9ED
:10048000089580B122C080B11AC086B118C086B16B
:100490001CC086B1F2CF86B1CCCF86B1C4CF86B1B5
:1004A0002DC086B130C086B132C089B108C082B3D8
:1004B00025C082B328C082B32AC080910901881F59
:1004C0008827881F08958091090186FB882780F975
:1004D000089580910901D1CF80910901AACF80911F
:1004E0000901A1CF8091090109C0809109010BC0C8
:1004F000809109010CC083B196CF83B182FB88271C
:1005000080F9089583B186958170089583B18170D3
:10051000089580E0089582E30E94FE01811103C0E6
:1005200081E090E002C08FEF9FEF40912402509154
:1005300025026091260270912702092E000CAA0B59
:10054000BB0B840F951FA61FB71F809324029093A7
:100550002502A0932602B093270208958EE10E94FF
:10056000FE01811103C081E090E002C08FEF9FEF98
:100570004091200250912102609122027091230249
:10058000092E000CAA0BBB0B840F951FA61FB71FCB
:100590008093200290932102A0932202B093230221
:1005A0000895362F90E0FC01E257FD4F4491FC0185
:1005B000E25BFC4F2491FC01E85FFC4F949199238E
:1005C00009F468C0442309F451C050E0FA0131979E
:1005D000E131F10508F04AC08827EA55FF4F8F4FF7
:1005E0000C94410A809180008F7703C08091800035
:1005F0008F7D809380003AC084B58F7702C084B528
:100600008F7D84BD33C08091B0008F7703C080910F
:10061000B0008F7D8093B00029C0809190008F77CB
:1006200007C0809190008F7D03C080919000877FEC
:10063000809390001BC08091A0008F7707C08091AD
:10064000A0008F7D03C08091A000877F8093A000D1
:100650000DC0809120018F7707C0809120018F7D90
:1006600003C080912001877F80932001E92FF0E073
:10067000EE0FFF1FE251FD4FA591B4919FB7F89483
:10068000311104C08C912095282302C0EC912E2BAF
:100690002C939FBF0895CF93DF9390E0FC01E25B22
:1006A000FC4F2491FC01E85FFC4F8491882361F1A9
:1006B00090E0880F991FFC01EC52FD4FC591D49139
:1006C000FC01E251FD4FA591B491611109C09FB7A2
:1006D000F8948881209582238883EC912E230BC087
:1006E000623061F49FB7F8948881322F309583236C
:1006F0008883EC912E2B2C939FBF06C08FB7F89464
:10070000E8812E2B28838FBFDF91CF9108951F9210
:100710000F920FB60F9211240BB60F922F933F93A7
:100720004F935F936F937F938F939F93AF93BF93F9
:10073000EF93FF9380911E0290911F02892B29F065
:10074000E0911E02F0911F021995FF91EF91BF9168
:10075000AF919F918F917F916F915F914F913F9159
:100760002F910F900BBE0F900FBE0F901F901895FA
:100770001F920F920FB60F9211240BB60F922F9368
:100780003F934F935F936F937F938F939F93AF9319
:10079000BF93EF93FF9380911C0290911D02892BD0
:1007A00029F0E0911C02F0911D021995FF91EF9143
:1007B000BF91AF919F918F917F916F915F914F9179
:1007C0003F912F910F900BBE0F900FBE0F901F9077
:1007D00018951F920F920FB60F9211240BB60F921D
:1007E0002F933F934F935F936F937F938F939F9339
:1007F000AF93BF93EF93FF938091120290911302F6
:10080000892B29F0E0911202F09113021995FF91C2
:10081000EF91BF91AF919F918F917F916F915F9178
:100820004F913F912F910F900BBE0F900FBE0F90E5
:100830001F9018951F920F920FB60F9211240BB6AE
:100840000F922F933F934F935F936F937F938F9369
:100850009F93AF93BF93EF93FF938091100290917A
:100860001102892B29F0E0911002F09111021995E3
:10087000FF91EF91BF91AF919F918F917F916F9178
:100880005F914F913F912F910F900BBE0F900FBE34
:100890000F901F9018951F920F920FB60F92112470
:1008A0000BB60F922F933F934F935F936F937F936A
:1008B0008F939F93AF93BF93EF93FF9380911A020F
:1008C00090911B02892B29F0E0911A02F0911B02F2
:1008D0001995FF91EF91BF91AF919F918F917F916A
:1008E0006F915F914F913F912F910F900BBE0F90A1
:1008F0000FBE0F901F9018951F920F920FB60F9278
:1009000011240BB60F922F933F934F935F936F93E6
:100910007F938F939F93AF93BF93EF93FF938091B8
:10092000180290911902892B29F0E0911802F09198
:1009300019021995FF91EF91BF91AF919F918F91FE
:100940007F916F915F914F913F912F910F900BBECF
:100950000F900FBE0F901F9018951F920F920FB619
:100960000F9211240BB60F922F933F934F935F93E7
:100970006F937F938F939F93AF93BF93EF93FF9367
:100980008091160290911702892B29F0E0911602AE
:10099000F09117021995FF91EF91BF91AF919F913F
:1009A0008F917F916F915F914F913F912F910F9018
:1009B0000BBE0F900FBE0F901F9018951F920F92B5
:1009C0000FB60F9211240BB60F922F933F934F93B4
:1009D0005F936F937F938F939F93AF93BF93EF93A7
:1009E000FF938091140290911502892B29F0E091D8
:1009F0001402F09115021995FF91EF91BF91AF91FB
:100A00009F918F917F916F915F914F913F912F9126
:100A10000F900BBE0F900FBE0F901F90189560E0C7
:100A20008CE00E94D10260E08DE00E94D10261E082
:100A300083E00E944B0360E083E00E94D10261E00A
:100A40008BE00E944B0360E08BE00C94D102CF92CC
:100A5000DF92EF92FF920F931F93CF93DF936C017E
:100A6000EB017B01E40EF51E00E010E0CE15DF0582
:100A700061F06991D601ED91FC910190F081E02D3A
:100A8000C6011995080F191FF1CFC801DF91CF9149
:100A90001F910F91FF90EF90DF90CF9008950895F0
:100AA0000F931F93CF93DF93FC01A685B7858D012C
:100AB000005C1F4FE8018881998101968F73992707
:100AC000AD014E5B5F4FEA01288139812817390754
:100AD000D1F3E80128813981A20FB31F6C93A68559
:100AE000B785A05CBF4F11969C938E93A689B7895A
:100AF0002C9181E090E0078C02C0880F991F0A9426
:100B0000E2F7822B8C9381E081A30488F589E02DA4
:100B100080818064808381E090E0DF91CF911F919C
:100B20000F910895FC0181A1882329F0A489B5893A
:100B30008C9186FFFBCF11A20895FC01A485B58599
:100B4000FD01E05CFF4F20813181329680819181EF
:100B50002817390779F080819181A80FB91F8C91EE
:100B6000208131812F5F3F4F2F73332731832083C3
:100B700090E008958FEF9FEF0895DC011C96ED91B2
:100B8000FC911D97DF01A05CBF4F2D913C91119707
:100B900012968D919C9111972817390739F08D91F4
:100BA0009C91E80FF91F808190E008958FEF9FEFEF
:100BB0000895FC0124853585F901E05CFF4F8081B3
:100BC0009181329620813181821B930B8F739927FB
:100BD000089588E292E00E94D90586E294E00E949E
:100BE000D9058CE793E00E94D90582ED92E00C9440
:100BF000D905FB01E05CFF4F20813181DB01AE5B59
:100C0000BF4F4D915C912F5F3F4F2F73332742179A
:100C1000530741F040815181DB01A40FB51F8C9334
:100C20003183208308951F920F920FB60F921124E3
:100C30002F933F938F939F93AF93BF938091D5044E
:100C40009091D604A091D704B091D8043091D404E7
:100C500023E0230F2D3720F40196A11DB11D05C0FF
:100C600026E8230F0296A11DB11D2093D404809382
:100C7000D5049093D604A093D704B093D804809160
:100C8000D0049091D104A091D204B091D3040196E4
:100C9000A11DB11D8093D0049093D104A093D204E0
:100CA000B093D304BF91AF919F918F913F912F91BA
:100CB0000F900FBE0F901F9018951F920F920FB6B6
:100CC0000F9211240BB60F922F933F938F939F9304
:100CD000EF93FF9320918A0230918B0280918C02D6
:100CE00090918D022817390731F4809131018F7D61
:100CF0008093310114C0E0918C02F0918D02E65B8B
:100D0000FD4F208180918C0290918D0201968F730E
:100D1000992790938D0280938C0220933601FF9146
:100D2000EF919F918F913F912F910F900BBE0F905C
:100D30000FBE0F901F9018951F920F920FB60F9233
:100D400011240BB60F922F933F938F939F93EF93A2
:100D5000FF932091340330913503809136039091B5
:100D600037032817390731F48091D1008F7D8093A4
:100D7000D10014C0E0913603F0913703EC50FD4FE1
:100D80002081809136039091370301968F739927C4
:100D900090933703809336032093D600FF91EF9111
:100DA0009F918F913F912F910F900BBE0F900FBE8F
:100DB0000F901F9018951F920F920FB60F9211244B
:100DC0000BB60F922F933F938F939F93EF93FF93C5
:100DD0002091DE033091DF038091E0039091E103E5
:100DE0002817390731F48091C9008F7D8093C9009D
:100DF00014C0E091E003F091E103E256FC4F208142
:100E00008091E0039091E10301968F73992790936D
:100E1000E1038093E0032093CE00FF91EF919F9137
:100E20008F913F912F910F900BBE0F900FBE0F909F
:100E30001F9018951F920F920FB60F9211240BB6A8
:100E40000F922F933F938F939F93EF93FF93209154
:100E500088043091890480918A0490918B0428172A
:100E6000390731F48091C1008F7D8093C10014C097
:100E7000E0918A04F0918B04E85BFB4F2081809124
:100E80008A0490918B0401968F73992790938B0419
:100E900080938A042093C600FF91EF919F918F91D8
:100EA0003F912F910F900BBE0F900FBE0F901F9090
:100EB00018951F920F920FB60F9211240BB60F9236
:100EC0002F933F934F935F936F937F938F939F9352
:100ED000AF93BF93EF93FF938091300182FD07C0E2
:100EE000809136016EE872E00E94F90502C080919F
:100EF0003601FF91EF91BF91AF919F918F917F91BB
:100F00006F915F914F913F912F910F900BBE0F907A
:100F10000FBE0F901F9018951F920F920FB60F9251
:100F200011240BB60F922F933F934F935F936F93C0
:100F30007F938F939F93AF93BF93EF93FF93809192
:100F4000D00082FD07C08091D60068E373E00E9464
:100F5000F90502C08091D600FF91EF91BF91AF914A
:100F60009F918F917F916F915F914F913F912F91C1
:100F70000F900BBE0F900FBE0F901F9018951F92F1
:100F80000F920FB60F9211240BB60F922F933F932F
:100F90004F935F936F937F938F939F93AF93BF9381
:100FA000EF93FF938091C80082FD07C08091CE002F
:100FB00062EE73E00E94F90502C08091CE00FF91BD
:100FC000EF91BF91AF919F918F917F916F915F91C1
:100FD0004F913F912F910F900BBE0F900FBE0F902E
:100FE0001F9018951F920F920FB60F9211240BB6F7
:100FF0000F922F933F934F935F936F937F938F93B2
:101000009F93AF93BF93EF93FF938091C00082FDB6
:1010100007C08091C6006CE874E00E94F90502C028
:101020008091C600FF91EF91BF91AF919F918F91F9
:101030007F916F915F914F913F912F910F900BBED8
:101040000F900FBE0F901F901895789484B5826012
:1010500084BD84B5816084BD85B5826085BD85B55C
:10106000816085BD80916E00816080936E001092DA
:101070008100809181008260809381008091810055
:1010800081608093810080918000816080938000E6
:101090008091B10084608093B1008091B000816044
:1010A0008093B00080919100826080939100809144
:1010B0009100816080939100809190008160809385
:1010C00090008091A10082608093A1008091A10096
:1010D00081608093A1008091A00081608093A00036
:1010E00080912101826080932101809121018160A2
:1010F0008093210180912001816080932001809163
:101100007A00846080937A0080917A008260809374
:101110007A0080917A00816080937A0080917A00D1
:10112000806880937A001092C100E0913C02F091B7
:101130003D0281E090E09C010090480202C0220F35
:10114000331F0A94E2F72083E0913802F0913902CC
:101150001082E0913A02F0913B0220E1208310924C
:101160004902E0913E02F0913F0240819C010090D3
:10117000440202C0220F331F0A94E2F7242B20837B
:10118000E0913E02F0913F0240819C0100904502B7
:1011900002C0220F331F0A94E2F7242B2083E09130
:1011A0003E02F0913F0240819C010090460202C045
:1011B000220F331F0A94E2F7242B2083E0913E0292
:1011C000F0913F0220810090470202C0880F991FD2
:1011D0000A94E2F780958223808360E085E10E9493
:1011E0004B0360E08EE10E944B038EEA92E0909305
:1011F00015028093140280916900836080936900D6
:10120000E89A60E082E10E944B0360E082E30E9482
:101210004B038BE892E090931B0280931A0280911B
:101220006900806C80936900EB9A61E083E00E9422
:101230004B0361E089E00E944B0361E08CE00E9477
:101240004B0361E08BE00E944B0361E088E00E9469
:101250004B0361E08DE00E944B030E940F0588E282
:1012600092E00E94D905181619069CF588E292E0D2
:101270000E949D05873711F460E022C08136C9F4D1
:1012800060E08CE00E94D10261E08DE00E94D1021A
:1012900061E083E00E944B0361E083E00E94D102A1
:1012A00061E08BE00E944B0361E08BE00E94D10281
:1012B00010C0833711F461E0E4CF843631F461E08B
:1012C0008CE00E94D10260E0E0CF803211F40E94F5
:1012D0000F050E94E905C3CFCF92DF92EF92FF92F4
:1012E000E8E2F2E01382128288EEC82E83E0D82E64
:1012F000E12CF12CC482D582E682F78264E072E0B0
:10130000718360838CE894E09587848788E494E017
:101310009787868785EC90E0918B808B84EC90E0BA
:10132000938B828B80EC90E0958B848B81EC90E0AA
:10133000978B868B82EC90E0918F808F86EC90E08B
:10134000938F828F44E0448F33E0358F27E0268FE0
:1013500095E0978F81E080A3E6E2F4E013821282A9
:10136000C482D582E682F78271836083A2EEB3E005
:10137000B587A487AEE9B3E0B787A687ADECB0E048
:10138000B18BA08BACECB0E0B38BA28BA8ECB0E03F
:10139000B58BA48BA9ECB0E0B78BA68BAAECB0E020
:1013A000B18FA08FAEECB0E0B38FA28F448F358F9A
:1013B000268F978F80A3ECE7F3E013821282C4821A
:1013C000D582E682F78271836083A8E3B3E0B587B4
:1013D000A487A4EFB2E0B787A687A5EDB0E0B18BF4
:1013E000A08BA4EDB0E0B38BA28BA0EDB0E0B58BE9
:1013F000A48BA1EDB0E0B78BA68BA2EDB0E0B18FCE
:10140000A08FA6EDB0E0B38FA28F448F358F268FCB
:10141000978F80A3E2EDF2E013821282C482D5821C
:10142000E682F782718360836EE872E07587648775
:101430006AE472E07787668765E371E0718B608BA1
:1014400064E371E0738B628B60E371E0758B648B96
:1014500061E371E0778B668B62E371E0718F608F7F
:1014600066E371E0738F628F448F358F268F978F7D
:1014700080A3FF90EF90DF90CF900895F8940C94A4
:10148000490AEE0FFF1F881F8BBF0790F691E02DD2
:061490001994F894FFCF4F
:101496000000000050052705D9059D05BD059205EC
:00000001FF
